:020000040800F2
:1000000000000820DD9600082D9700082D970008B5
:100010002D9700082D9700082D970008000000007C
:10002000000000000000000000000000259600080D
:100030002D97000800000000279600082996000868
:100040002D9700082D9700082D9700082D97000880
:100050002D9700082D9700082D9700082D97000870
:100060002D9700082D9700082D9700082D97000860
:100070002D9700082D9700082D9700082D97000850
:100080002D9700082D9700082D9700082D97000840
:100090002D9700082D9700082D9700082D97000830
:1000A0002D9700082D9700082D9700082D97000820
:1000B0002D9700082D9700082D9700082D97000810
:1000C0002D9700082D9700082D9700082D97000800
:1000D0002D9700082D9700082D9700082D970008F0
:1000E000319600082D9700082D9700082D970008DD
:1000F0002D9700082D9700082D9700082D970008D0
:100100002D9700082D9700082D9700082D970008BF
:100110002D9700082D9700082D9700082D970008AF
:100120002D970008459600082D9700082D97000888
:10013000559600082D9700082D9700082D97000868
:100140002D9700082D9700082D9700082D9700087F
:100150002D9700082D9700082D9700082D9700086F
:100160002D9700082D9700082D9700082D9700085F
:100170002D9700082D9700082D970008000000001B
:100180002D9700082D9700082D9700082D9700083F
:100190002D9700082D9700082D97000865960008F8
:1001A0002D9700082D9700082D9700082D9700081F
:1001B0002D9700082D9700087D9600082D970008C0
:1001C0002D9700082D9700082D9700082D970008FF
:1001D0002D9700082D9700082D9700082D970008EF
:1001E0002D9700082D9700082D9700082D970008DF
:0801F0002D9700082D9700086F
:1002000010B5054C237833B9044B13B10448AFF350
:1002100000800123237010BD2C020020000000008C
:100220003CC7000808B5034B1BB103490348AFF3B3
:10023000008008BD00000000300200203CC700081C
:100240004B1C012B98BF70472DE9F003911C9B08B4
:10025000B1F80480B1F802900A8831F802CC8044E9
:10026000814402448444D9F80070D8F800601568CD
:10027000DCF80040C9F80060C8F80070CCF8005005
:100280001460D9F80470D8F804605568DCF80440AC
:10029000C9F80460C8F80470CCF804505460083100
:1002A000013BD5D1BDE8F00370474B1C012B98BF33
:1002B00070472DE9F003911C9B08B1F80480B1F858
:1002C00002900A8831F802CC00EB580800EB59097B
:1002D00000EB520200EB5C0CD9F80070D8F800601B
:1002E0001568DCF80040C9F80060C8F80070CCF868
:1002F000005014600831013BDFD1BDE8F0037047C6
:1003000053B94AB9002908BF00281CBF4FF0FF317C
:100310004FF0FF3000F072B9ADF1080C6DE904CE7A
:1003200000F006F8DDF804E0DDE9022304B07047D0
:100330002DE9F047089E04468846002B4BD18A429F
:10034000154667D9B2FA82F24AB1C2F1200701FA22
:1003500002F320FA07F7954047EA030894404FEA72
:10036000154E230CB8FBFEF71FFA85FC0EFB178811
:1003700043EA084307FB0CF1994209D9EB1807F14E
:10038000FF3080F01B81994240F21881023F2B44DC
:100390005B1AA4B2B3FBFEF00EFB103344EA034435
:1003A00000FB0CFCA44509D92C1900F1FF3380F0A7
:1003B0000781A44540F2048102382C4440EA0740FA
:1003C000A4EB0C0400271EB1D4400023C6E900436F
:1003D0003946BDE8F0878B4209D9002E00F0EB804A
:1003E0000027C6E9000138463946BDE8F087B3FA70
:1003F00083F7002F47D18B4202D3824200F2FA806A
:10040000841A61EB030301209846002EE0D0C6E970
:100410000048DDE702B9FFDEB2FA82F2002A40F0BE
:100420008F80491B4FEA154E1FFA85F80127B1FB53
:10043000FEFC230C0EFB1C1143EA014308FB0CF1EC
:10044000994207D9EB180CF1FF3002D2994200F221
:10045000CD808446591AA3B2B1FBFEF00EFB1014F6
:1004600043EA044408FB00F8A04507D92C1900F121
:10047000FF3302D2A04500F2B6801846A4EB080470
:1004800040EA0C409FE7C7F1200CBB4022FA0CFE6B
:100490004EEA030E01FA07F420FA0CF521FA0CF3E8
:1004A0004FEA1E482543B3FBF8F92C0C08FB19331F
:1004B0001FFA8EFA44EA034309FB0AF49C4202FA4B
:1004C00007F200FA07F10BD91EEB030309F1FF3025
:1004D00080F087809C4240F28480A9F10209734435
:1004E0001B1BADB2B3FBF8F008FB103345EA034425
:1004F00000FB0AFAA24508D91EEB040400F1FF3301
:100500006BD2A24569D90238744440EA0940A0FB85
:100510000289A4EB0A044C45C2464B4654D351D041
:10052000002E69D0B1EB0A0564EB030404FA0CFC5D
:10053000FD40FC404CEA0505C6E90054002747E7AA
:10054000C2F1200320FA03F7954001FA02F021FAE4
:1005500003F34FEA154E3843010CB3FBFEF71FFAC5
:1005600085F80EFB173341EA034107FB08F38B4282
:1005700004FA02F407D9691807F1FF3C2FD28B4225
:100580002DD9023F2944CB1A81B2B3FBFEF00EFBFA
:10059000103341EA034100FB08F38B4207D9691885
:1005A00000F1FF3C17D28B4215D902382944C91AF1
:1005B00040EA07473BE73746304609E70746E7E6A4
:1005C0001846FBE64145ABD2B8EB020A69EB0E02D6
:1005D00001381346A4E76046E9E7184695E7674601
:1005E000D1E781467CE702382C4447E7ACF1020CA6
:1005F0002B442FE7384608E73746E9E6704700BF47
:10060000034613F8012B002AFBD1181A0138704752
:1006100001F0FF01102A2BDB10F0070F08D010F8B3
:10062000013B013A8B422DD010F0070F42B3F6D1B7
:10063000F0B441EA012141EA014122F007047FF0D0
:1006400000070023F0E80256083C85EA010586EA27
:10065000010685FA47F5A3FA87F586FA47F6A5FA63
:1006600087F68EB9EED1F0BC01F0FF0102F007026F
:1006700032B110F8013B013A83EA010313B1F8D11A
:100680000020704701387047002D06BF35460338FB
:10069000073815F0010F07D1013015F4807F02BF34
:1006A000013015F4C03F0130F0BC0138704700BF85
:1006B0002DE9F04F83B083460191F84C214600208C
:1006C00000F054FB211D032000F050FB04F108054D
:1006D0002946002000F04AFB04F10C01022000F042
:1006E00045FB2946002000F041FB04F110010020E9
:1006F00000F03CFB0A2000F0EDF904F114010020A9
:1007000000F034FB04F11801002000F02FFB0A2058
:1007100000F0E0F904F11C01002000F027FB04F1D7
:100720002001002000F022FB04F12401002000F051
:100730001DFB04F128073946002000F017FB04F1E7
:100740002C01002000F012FB04F13001002000F029
:100750000DFB2146002000F009FB04F134010020CC
:1007600000F004FB04F1380A5146002000F0FEFAC4
:1007700004F13C01002000F0F9FA04F14006314692
:10078000002000F0F3FA04F14401002000F0EEFA3A
:1007900004F14801002000F0E9FA04F14C010020C6
:1007A00000F0E4FA04F15001002000F0DFFA3946CD
:1007B000002000F0DBFA2146002000F0D7FA04F117
:1007C0005401022000F0D2FA04F15801002000F098
:1007D000CDFA04F15C01002000F0C8FA04F16001D8
:1007E000002000F0C3FA04F16401002000F0BEFA1A
:1007F00004F16801002000F0B9FA04F16C01002056
:1008000000F0B4FA5146002000F0B0FA04F1700193
:10081000002000F0ABFA3146002000F0A7FA04F106
:100820007401002000F0A2FA04F17801002000F029
:100830009DFA04F17C01022000F098FA294600207C
:1008400000F094FA04F18001062000F08FFA04F120
:1008500088094946002000F089FA04F18C010E2035
:1008600000F084FA04F19C084146002000F07EFA72
:1008700004F1A0010E2000F079FA04F1B007394626
:10088000002000F073FA04F1B4010A2000F06EFABF
:1008900004F1C0063146002000F068FA04F1C401FA
:1008A000002000F063FA2946002000F05FFA04F10E
:1008B000C8010A2000F05AFA04F1D401002000F027
:1008C00055FA04F1D8010F2000F050FA49460020F3
:1008D00000F04CFA04F1E8010F2000F047FA41461D
:1008E000002000F043FA04F1F8010A2000F03EFA7B
:1008F0003946002000F03AFA04F582710F2000F02A
:1009000035FA3146002000F031FA04F58A710F20E3
:1009100000F02CFA04F59271002000F027FA04F59B
:1009200094710A2000F022FA04F59A71002000F078
:100930001DFA04F59C710A2000F018FA29460020DF
:1009400000F014FA04F5A2710A2000F00FFA04F185
:10095000D401002000F00AFA04F5A8710F2000F07D
:1009600005FA4946002000F001FA04F5B0710F20A5
:1009700000F0FCF94146002000F0F8F904F5B871E8
:100980000A2000F0F3F93946002000F0EFF904F5F1
:10099000BE710F2000F0EAF93146002000F0E6F9C0
:1009A00004F5C6710F2000F0E1F95146002000F077
:1009B000DDF904F5CE71002000F0D8F904F5D0710E
:1009C000002000F0D3F904F5D271002000F0CEF938
:1009D00004F5D471002000F0C9F904F5D6710020A7
:1009E00000F0C4F92146002000F0C0F904F5D871E8
:1009F000032000F0BBF92146002000F0B7F92146A2
:100A0000002000F0B3F904F5DA71102000F0AEF91F
:100A10002146002000F0AAF904F5E471102000F04E
:100A2000A5F904F5EE71002000F0A0F9782000F09F
:100A300051F8BBF1000F33D0BBF1020F04D104F524
:100A4000F071002000F092F9019B012B2DD0134C86
:100A500004F5FE71002000F089F904F50071002012
:100A600000F084F904F50171002000F07FF904F52D
:100A70000271002000F07AF904F50371002000F003
:100A800075F92146002000F071F904F50471002089
:100A900000F06CF9002003B0BDE8F08F58C70008E3
:100AA0000A49002000F062F9CEE7094C04F5F47120
:100AB000002000F05BF904F5F671042000F056F90F
:100AC00004F5FA71042000F051F9C0E73CC90008B0
:100AD00058C7000808B500F093FD08BD1120704705
:100AE000F0B583B004460D4616461F4611484FF434
:100AF0004033436000238360089BC3600E4B036058
:100B000001F0EEFB08B103B0F0BD2146094801F049
:100B1000E3FC0028F7D1009733462A460999054897
:100B200001F01EFC0028EED10A21024801F034FC3D
:100B3000E9E700BF3C04002000B0024070B586B079
:100B4000144B1A6B42F400721A631B6B03F40073AC
:100B50000093009B4FF400450195012602960396F1
:100B6000032304930C4C01A9204602F0D9F900227A
:100B70002946204602F062FB142000F041FD324677
:100B80002946204602F05AFB0A2000F039FD06B043
:100B900070BD00BF0038024000240240014B1868BD
:100BA000704700BF00000020014B5868704700BF2D
:100BB0000000002070B58EB005460E46002401945A
:100BC000FFF7ECFF02900394FFF7EEFF049005940B
:100BD0000A96FF23069307948DF834408DF835402C
:100BE0008DF836404FF4C063089307230993FFF74D
:100BF000D5FF0B90FFF7D8FF0C902A4601A90A48B1
:100C000003F06EF8094A680041198B0013444FF055
:100C1000FF3199600649D960284483001A444FF097
:100C20007F4353600EB070BD940400204802002042
:100C300008000020014B1860704700BF48020020E8
:100C4000012910D00D4B1B6803EBC010D0F8843085
:100C500023F00103C0F88430084B1A68536A43F04C
:100C6000010353627047054B1B6803EBC010D0F8BB
:100C7000843043F00103C0F88430EDE79404002091
:100C8000034A136803EB430399000A44506070471A
:100C900048020020034A136803EB430399000A4407
:100CA000D060704748020020F0B583B007460B4B78
:100CB0001C680B4A342303FB0423DD6DFFF76EFF32
:100CC0000646FFF771FF0197002300930346324663
:100CD00029462046FFF704FF03B0F0BD480200207C
:100CE000940400202DE9F04782B081460E46174655
:100CF0009846134C236803EB43039A002244506840
:100D0000FFF7BEFF25680F4A342303FB0523D3F802
:100D10005CA0FFF743FF00FB069105EB4502930043
:100D20001C4463680193C01B009043463A460AEB9B
:100D300081012846FFF7D4FE02B0BDE8F08700BF6E
:100D4000480200209404002000B583B0054BD96907
:100D50000023009329231522034802F044F803B02E
:100D60005DF804FB480200203C05002000B583B07C
:100D700001280BD90B5C0191009303463922002115
:100D8000074802F05CF803B05DF804FB0B784A7882
:100D9000009215220021024802F025F8F3E700BF77
:100DA0003C05002000B585B0274B5A6C42F08062AC
:100DB0005A645A6C02F080620192019A5A6A42F0B7
:100DC00080625A625A6A22F080625A621A6B42F456
:100DD00000021A631A6B02F400020292029A1A6964
:100DE00042F400021A611A6922F400021A615A6C74
:100DF00042F000625A645A6C02F000620392039A55
:100E00005A6A42F000625A625A6A22F000625A62DA
:100E100000220321582000F083FE582000F0B2FE8B
:100E2000002203215A2000F07BFE5A2000F0AAFE87
:100E300000220321622000F073FE622000F0A2FE77
:100E400005B05DF804FB00BF003802402DE9F04713
:100E500084B00746FFF772FEFFF740FE112803D06B
:100E6000012004B0BDE8F087FFF79CFF514C524BC6
:100E70002360204601F030FD642301930523029393
:100E8000002303930123E3600423A3600DEB03011C
:100E9000204601F073FC002F40F08380474B4FF455
:100EA000F0721A604FF448725A60DFF81081D8F877
:100EB0000030D8F80420424C0025E561052020626E
:100EC000E563A56325640220A06240F6FF706063BD
:100ED0002563E362042060644D20A06403F14600B2
:100EE0004FF2244303FB00F33648A0FB03135B0BD4
:100EF000E3644FF00109C4F850900F236365102399
:100F0000A365E2654FF4004222666366A5664FF46E
:100F10000053E3664FF4805323674FF40063636725
:100F20004FF48063A3674FF40073E3674FF480735B
:100F3000C4F880301C34DFF87CA02146504601F014
:100F4000FBFC214EC6F814902323F361D8F800303F
:100F500003F12302726203F14502F2623366D8F8AC
:100F60000430736686F8345086F8355086F836506B
:100F70003561164B33602146304602F0DFFE3046C5
:100F800002F030FE504601F017FF00F0B3FA08F10E
:100F90000800FFF77FFE39462846FFF789FB284601
:100FA0005FE7064B4FF448721A604FF4F0725A60D4
:100FB0007BE700BF3C050020006C014000000020E2
:100FC00048020020E31C754C940400200068014096
:100FD00008B50120FFF73AFF08BD0000F8B5074645
:100FE0000C461646064B1B68064A342101FB0323B8
:100FF000DD6DFFF7D3FD00FB047045F82060F8BD00
:1010000048020020940400202DE9F04F83B081466F
:101010000F460092334A136803EB430399000A44D6
:10102000D368DA8801929D8805F1070B4FEAEB0B34
:101030004FEACB085FFA88F8EBB2A8EB03085FFA37
:1010400088F84FF0000A33E0009AD65C002413E0E1
:101050000099CB5C567846EA0326F7E7214A1368E5
:1010600003EB430399000A4409EB040092683946F4
:1010700080B2FFF7B3FF0134A54215D92B1B4344BF
:10108000013B012202FA03F33342E7D0154A136809
:1010900003EB430399000A4409EB04005268394604
:1010A00080B2FFF79BFFE6E70137BFB20AF1010A02
:1010B000019B534512D90AFB0BF3009A1A44BBF16A
:1010C000010FC1D0BBF1020FC2D00099CB5C5678A2
:1010D000360246EA034693781E43B7E703B0BDE8FD
:1010E000F08F00BF4802002038B50A4C236803EB9C
:1010F00043039D002C44E3681C68A2F12005DA88B4
:1011000002FB05F29B880733DB1003FB0242FFF76B
:101110007BFF38BD480200202DE9F0410546884696
:1011200016461F461346002401E0013413465A1C9C
:101130001B78002BF9D1FFF731FD274A136803EB29
:10114000430399000A44D3689A88B0FBF2F0012F58
:1011500006D0022F0CD02BB2002B3BDD002420E068
:10116000041B04FB02F3C3F34F031D44ADB2F2E7CB
:10117000031B13FB02F39BB25D1BADB2EBE73A46D8
:1011800041462846FFF7B0FF134A136803EB4303B9
:1011900099000A44D3689B881D44ADB201360134DE
:1011A000A4B23778FFF7FAFC0B4A136803EB43034A
:1011B00099000A44D3689B8803FB140080B29842CC
:1011C00034BF00200120002F08BF00200028D6D106
:1011D000BDE8F0810125C1E7480200202DE9F04F6C
:1011E00085B0A2EB000ABAF1000FB8BFCAF1000A3D
:1011F0000FFA8AFAA3EB010BBBF1000FB8BFCBF1DA
:10120000000B0FFA8BFB05B20FB2824215D30122FD
:1012100002928B4215D301230393DA4518DB54461F
:10122000BAF1000F11DB44F34F04029B009300233B
:10123000029301934FF0000926E04FF0FF32029233
:10124000E7E74FF0FF330393E7E70AF10104EAE72A
:101250005C46BBF1000F0ADB44F34F045346DA4609
:101260009B46039B0193002303930093E2E70BF15A
:101270000104F1E7009B1D442DB2019B1F443FB2C6
:1012800009F101090FFA89F9CA451DDB1FFA85F832
:10129000BEB20F4A136803EB430399000A44526835
:1012A00031464046FFF79AFE5C44A3B21CB2A24509
:1012B000E0DCA3EB0A0424B2029B08EB03052DB289
:1012C000039BF7183FB2D5E705B0BDE8F08F00BF2C
:1012D000480200202DE9F04383B081464FF000081A
:1012E000CDF80480204C0126266010276760A66098
:1012F000C4F80C801D4D4FF6FF722146284604F0BD
:10130000F8FC304600F07CF9022323606760A66099
:10131000C4F80C804FF6FF722146284604F0E9FC21
:101320000323236067600823A360C4F80C804FF692
:10133000FF722146284604F0DCFC4FF40C73019345
:10134000042323606760A660019BE3604FF6FF7291
:101350002146284604F0CDFC4946284604F0E6FC28
:1013600003B0BDE8F08300BFD00200205805002084
:1013700070B58EB00646564B9A6B42F001029A63E6
:101380009A6B02F001020192019A1A6B42F48002F8
:101390001A631A6B02F480020292029A1A6B42F0EC
:1013A00008021A631A6B02F008020392039A1A6B7E
:1013B00042F010021A631A6B02F010020492049AAF
:1013C0001A6B42F020021A631A6B02F02002059297
:1013D000059A1A6B42F040021A631A6B02F040023F
:1013E0000692069A1A6B42F080021A631A6B02F098
:1013F00080020792079A1A6B42F480721A631B6B81
:1014000003F480730893089B02230A9301230B9330
:1014100003250C950C230D930EAC4CF2037344F88A
:10142000143D21462B4801F07BFD4FF68373099351
:101430002146294801F074FD4FF63F0309932146E8
:10144000264801F06DFD48F23713099321462448E0
:1014500001F066FD4FF62C7309932146214801F0F7
:101460005FFD40F2FF63099321461F4801F058FDDC
:101470001E4B00245C6180229A614FF40072DA6195
:101480004FF480621A624FF480525A624FF48042E5
:101490009A62DC624FF400321A635C639D63DC6322
:1014A0001C641D46124A45F8102F35639E64284679
:1014B00000F018FD284600F0AFFC22460F2138202E
:1014C00000F02EFB382000F05DFB0EB070BD00BFB9
:1014D00000380240000C024000100240001402409C
:1014E00000180240001C024000200240D0020020F0
:1014F0001064024038B51D4C1D4B23601D4D022366
:101500002B67072169670422AA67E967C5F880305D
:10151000C5F88430C5F8883000216160A160E260C0
:1015200020232361402363614FF4C073A361E16111
:101530004FF4006323624FF480536362A16220463C
:10154000FFF716FF05F17001204604F0B3FB48B920
:10155000094B00221A7040F20360FFF7BBFE064BF6
:10156000187838BD044B01221A70F4E758050020A2
:10157000400100A0D00200203000002010B5044639
:101580000E4B18784FF47A73B3FBF0F30C4A1068E3
:10159000B0FBF3F000F002FB68B90F2C01D9012079
:1015A0000AE0002221464FF0FF3000F0B9FA034B69
:1015B0005C60002000E0012010BD00BF340000206E
:1015C0005400002008B5032000F098FA0020FFF72F
:1015D000D5FF07F03DFA002008BD0000034A11685E
:1015E000034B1B780B441360704700BF8C05002031
:1015F00034000020014B1868704700BF8C050020A4
:1016000038B50446FFF7F6FF0546B4F1FF3F02D0B8
:10161000044B1B781C44FFF7EDFF401BA042FAD39C
:1016200038BD00BF34000020494B5A6822F44032D4
:101630005A605A6841680A435A600268536823F442
:101640008073536002685368016943EA0123536061
:101650000268536823F040735360026853688168DE
:101660000B4353600268936823F40063936002683D
:101670009368C1680B439360826A364B9A4249D0A3
:101680000268936823F07063936002689368816ACC
:101690000B4393600268936823F0405393600268A1
:1016A0009368C16A0B4393600268936823F0020356
:1016B000936002689368816943EA41039360036A17
:1016C000002B32D10268536823F400635360026830
:1016D000D36A23F47003D3620168CB6AC269013A0A
:1016E00043EA0253CB620268936823F40073936069
:1016F00002689368016B43EA412393600268936830
:1017000023F48063936002689368416943EA81230C
:10171000936070470268936823F070639360026877
:10172000936823F040539360BEE70268536843F424
:10173000006353600268536823F460435360016898
:101740004B68426A013A43EA42334B60BFE700BF4D
:10175000002301400100000F20B310B50446036CC4
:1017600043B1236C13F0100F0AD00120002384F83A
:101770003C3010BD436480F83C3007F081F9F0E75D
:10178000226C094B134043F0020323642046FFF709
:101790004BFF00206064236C23F0030343F001033C
:1017A0002364E3E701207047FDEEFFFF30B482B011
:1017B0000023019390F83C30012B00F0C0800123FE
:1017C00080F83C300B68092B22D90568EA689BB287
:1017D00003EB43031E3B072404FA03F322EA03034B
:1017E000EB600B68574A93420BD00568EA688C6837
:1017F0009BB203EB43031E3B04FA03F31343EB607A
:101800001BE00268D3688C6843EA0463D36014E089
:1018100005682A699BB203EB4303072404FA03F328
:1018200022EA03032B6105682A698C680B8803EBA5
:10183000430304FA03F313432B614B68062B24D8AC
:1018400005686A6B03EB8303053B1F2404FA03F36B
:1018500022EA03036B6305686A6B4B6803EB83033F
:10186000053B0C8804FA03F313436B630268364BA1
:101870009A423AD00268344B9A423FD0002380F813
:101880003C30184602B030BC70470C2B16D80568A7
:101890002A6B03EB8303233B1F2404FA03F322EA9E
:1018A00003032B6305682A6B4B6803EB8303233B1D
:1018B0000C8804FA03F313432B63D7E70568EA6A3D
:1018C00003EB8303413B1F2404FA03F322EA0303DF
:1018D000EB620568EA6A4B6803EB8303413B0C88C3
:1018E00004FA03F31343EB62C0E70B68122BC1D178
:1018F000164A536843F480035360BBE70B68114AF0
:10190000112B18BF9342B9D1104A536843F4000316
:1019100053600A680B4B9A42B0D10D4B1B680D4ABD
:10192000A2FB03239B0C03EB83035A00019202E00A
:10193000019B013B0193019B002BF9D19EE7022003
:10194000A0E700BF1200001000200140002301406A
:101950005400002083DE1B4300283CD010B5044611
:10196000836A002B39D090F83530002B2ED02423F9
:1019700084F835302268136823F00103136063682C
:10198000A2681343E2681343226913436269134355
:10199000A2691343E2691343A28C43EA0243216A1A
:1019A00022680B4353602268516941F6FF730B4371
:1019B00053612268136843F0010313600020A063A1
:1019C000202384F8353084F8363010BD80F8343068
:1019D00007F064F9CBE7012070470120F5E7704775
:1019E00070477047F8B5044603681D6915F0800616
:1019F00005D0802282631A6942F080021A6115F0D4
:101A0000010F10D0222384F83630638E01336386B1
:101A10002368DA68A36A591CA1621A7022681369E4
:101A200043F00103136115F0020F31D115F4807FEB
:101A300012D0238E002B3ED12268136843F004039A
:101A40001360E36A5A1CE26222681B789360226882
:101A5000136943F48073136115F4007F35D141F6A7
:101A60007C431D4213D0A563226811690B431361A7
:101A700015F07C0F39D0628EA36A9B1AA3620023F3
:101A80006386202384F836302046FFF7AAFFF8BD8E
:101A90002268136943F002031361202384F836306F
:101AA0000027A763618EA36A5B1AA3622046FFF733
:101AB00097FF6786BAE7E36A5A1CE26222681B78DE
:101AC0009360238E013B2386C1E72268136943F4A8
:101AD00000731361202384F83530002384F83430F8
:101AE000A3632046FFF77BFFB9E715F4E05FCBD097
:101AF000002EC9D1202384F83530C5E70649CB68CC
:101B000023F4E0631B041B0C000200F4E0600343B9
:101B1000024A1A43CA60704700ED00E00000FA056F
:101B200030B4154BDB68C3F30223C3F10704042C64
:101B300028BF04241D1D062D14D9033B4FF0FF358B
:101B400005FA04F421EA0401994005FA03F322EAB4
:101B500003031943002807DB0901C9B2074B1954D5
:101B600030BC70470023E9E700F00F000901C9B25B
:101B7000034B1954F4E700BF00ED00E000E400E07F
:101B800014ED00E000F01F02400901239340024AD7
:101B900042F82030704700BF00E100E00138B0F1AA
:101BA000807F0AD2064B5860064AF02182F8231043
:101BB0000020986007221A6070470120704700BF1C
:101BC00010E000E000ED00E0144B984216D0203306
:101BD000984215D02033984214D02033984213D025
:101BE0002033984212D02033984211D020339842AB
:101BF00010D0203398420FD0FF207047002070474C
:101C0000012070470220704703207047042070476E
:101C10000520704706207047072070470074014078
:101C2000002878D010B504460068FFF7CDFF3B4B85
:101C300053F820300BB1012010BD204606F088FF7C
:101C4000364B1A6A01321A621B6A012B45D0226890
:101C5000136823F47143136021680A68236960697B
:101C60000343A069034313430B602268136823F006
:101C70000F03136021680B68E269206A0243134373
:101C80000B602268936823F45F0393602068836885
:101C9000626AA16A013942EA014213438360226801
:101CA000536803F00703536021684A68E06A236BB6
:101CB000DB0043EA002313434B602268136843F0C0
:101CC00080031360012384F834302068FFF77CFF21
:101CD000124B43F820400020AEE7114B1A6822F067
:101CE00080421A601A68A1680A431A601A6822F4CE
:101CF0007F021A602379012B05D0094A136843F04B
:101D000000431360A3E706490B68E268013A43EA1F
:101D100002430B60F1E70120704700BFBC030020C5
:101D20000074014030B405682C6824F480242C60D1
:101D3000046863608368402B05D00368996003687A
:101D4000DA6030BC704703689A600368D960F8E7CE
:101D50000268D3B2103B0949A1FB03131B090849D0
:101D6000C95CC165032B04D8064B13408365806DA5
:101D70007047044B134004338365F8E7ABAAAAAA63
:101D80004806010800FCFFFF836A826992B9012BB3
:101D90000AD01BB1022B01D000207047C36A13F098
:101DA000807F2CD100207047C36AB3F1C07F28D058
:101DB00000207047B2F5005F05D0022B29D9032B14
:101DC00015D000207047032B03D8DFE803F01C0474
:101DD0001C0A00207047C36A13F0807F15D10020D1
:101DE0007047C36AB3F1C07F11D000207047C36A47
:101DF00013F0807F01D00120704700207047012040
:101E00007047012070470120704701207047012072
:101E1000704701207047000070B50446FFF7EAFBE9
:101E2000002C5BD00546002384F83430022384F86C
:101E300035302268136823F00103136023681A68A1
:101E400012F0010F0AD0FFF7D5FB401B0528F5D98A
:101E500020236365032084F8350070BD1A6820488C
:101E600010406168A2680A43E1680A4321690A4395
:101E700061690A43A1690A43E1690A43216A0A4385
:101E80000243616A04291ED01A602668756925F02C
:101E90000705636A1D43042B07D1A36A1D43E36A48
:101EA0001BB12046FFF770FF90B975612046FFF720
:101EB0004FFFE26D3F239340836000206065012364
:101EC00084F83530C9E7E16A206B01430A43DBE758
:101ED00040236365012084F83500BEE70120BCE79C
:101EE0003F8010E000282CD038B5044690F83530FB
:101EF000DBB2022B27D00268136823F001031360C2
:101F0000036800251D6003685D6003689D600368C9
:101F1000DD6003681D61036821225A61FFF718FF25
:101F2000E26D3F2393408360E56325646564A564A7
:101F3000E5642565656584F8355084F83450284695
:101F400038BD012070470220FAE738B5856D90F85A
:101F50003440012C31D0012480F8344090F83540D1
:101F6000E4B2012C04D0002380F83430022038BDC4
:101F70000446022084F83500002060652046FFF703
:101F8000D1FEE26D3F239340AB602268136843F0BB
:101F9000160313602268536943F080035361236C76
:101FA00023B12268136843F00803136022681368A2
:101FB00043F0010313600020D9E70220D7E770B592
:101FC0000446866DFFF716FB94F83530DBB2022B22
:101FD00006D080236365002384F83430012070BD6F
:101FE00005462268136823F01603136022685369BC
:101FF00023F080035361236CE3B12268136823F05C
:10200000080313602268136823F001031360236838
:102010001B6813F0010F11D0FFF7ECFA401B0528E5
:10202000F5D920236365002384F83430032084F835
:102030003500D4E7A36C002BDFD1E3E7E26D3F234B
:102040009340B360002084F83400012384F83530D5
:10205000C5E790F83530DBB2022B03D0802343650F
:1020600001207047052380F835300268136823F09B
:102070000103136000207047F0B583B004460023CD
:102080000193724B1D68724BA3FB0535AD0A876D3A
:102090003E68C26D08239340334210D003681A682B
:1020A00012F0040F0BD01A6822F004021A60C26DFD
:1020B00008239340BB60436D43F001034365E26D29
:1020C00001239340334209D02268526912F0800FF5
:1020D00004D0BB60636D43F002036365E26D0423CB
:1020E0009340334209D02268126812F0020F04D0E4
:1020F000BB60636D43F004036365E26D102393409E
:10210000334224D02268126812F0080F1FD0BB603F
:1021100023681A6812F4802F0DD01B6813F4002F67
:1021200004D1236C9BB12046984710E0A36C73B197
:10213000204698470BE01A6812F4807F03D11A6892
:1021400022F008021A60236C0BB120469847E26D1A
:1021500020239340334255D02268126812F0100FAA
:1021600050D0BB6094F83530DBB2052B0ED023681D
:102170001A6812F4802F33D01B6813F4002F2AD171
:10218000636C002B3ED0204698473BE022681368E2
:1021900023F0160313602268536923F08003536110
:1021A000236CA3B12268136823F008031360E26D67
:1021B0003F239340BB60002384F83430012384F82C
:1021C0003530236D002B3FD0204698473CE0A36C70
:1021D000002BE7D1EBE7E36BA3B12046984711E072
:1021E0001A6812F4807F09D11A6822F010021A606E
:1021F000002384F83430012384F83530E36B0BB1CD
:1022000020469847636DFBB1636D13F0010F17D043
:10221000052384F835302268136823F00103136026
:10222000019B01330193AB4204D823681B6813F070
:10223000010FF5D1002384F83430012384F83530C0
:10224000E36C0BB12046984703B0F0BD540000206A
:10225000B5814E1B70B40668746C04F04044039D55
:1022600045EA03431C4374640368DA634368B3F5C7
:10227000403F03D00368D96070BC704701F07F46CF
:1022800001F47F0301F47F45CAB2846894B1012C44
:102290000ED0022C11D0032C17D0360F1B0D2D0B96
:1022A000190241EA051141EA063141EA121101E041
:1022B00021F07F4103689963DEE7DB0CAD0AD902A8
:1022C00041EA451141EAD201F4E7F60FDB0CED0AD1
:1022D000990241EA451141EAC63141EAD201E9E7F2
:1022E000002838D010B5044690F85130002B2DD07E
:1022F000022384F851302268136823F44033616864
:102300000B4313602268536B23F00703A1680B4350
:1023100053632268116C114B0B40E1680B4313644B
:102320002268536B23F48013216943EA01535363FA
:102330002268536B23F40013616943EA41535363EA
:1023400000206065012384F8513010BD80F85030C2
:1023500006F046FCCCE70120704700BF00C0FFFF3D
:1023600010B582B090F85040012C13D004460120E3
:1023700084F85000022084F8510004980090204610
:10238000FFF768FF2268136843F001031360002021
:1023900002B010BD0220FBE770B582B004460D46C6
:1023A0000023019303681B6813F0010F2AD12368EF
:1023B000DA6912F0200F03D15B6A13F0200F7FD08F
:1023C000FFF718F9064623685A6812F0100F77D104
:1023D0005A680192019A12F0290F4FD1B5F1FF3FCF
:1023E000F1D025B1FFF706F9801BA842EBD9636D48
:1023F00043F020036365032084F85100002384F830
:10240000503066E0FFF7F6F8064623685A6812F087
:10241000020FCCD15A680192019A12F0210F13D108
:10242000B5F1FF3FF1D025B1FFF7E4F8801BA842DA
:10243000EBD9636D43F020036365032084F85100FA
:10244000002384F8503044E0019A12F0200F03D0AA
:10245000626D42F002026265019A12F0010F03D030
:10246000626D42F00102626521229A60042384F8C1
:102470005130002384F8503001202AE0019A12F0F4
:10248000080F03D0626D42F004026265019A12F0F7
:10249000200F03D0626D42F002026265019A12F0D1
:1024A000010F03D0626D42F00102626529229A6039
:1024B000042384F85130002384F85030012008E0D0
:1024C000236812229A60012384F85130002084F896
:1024D000500002B070BD000090F85030012B67D062
:1024E00030B4012380F85030022380F851304B0083
:1024F0000B44DA000244546A936A44EA0343156BBE
:1025000043EA0553526B43EA4253093C012C21D95B
:1025100001EB4104E2000244D26A43EA026361BB78
:102520000468656A234A2A401343636204684A00C8
:102530000A44D30003441A6AA2615B6A093B012B77
:1025400011D9012380F85130002380F8503018460B
:1025500030BC704701EB4104E2000244D26A02F051
:102560007F421343DBE701EB4101CB000344DB6A0D
:10257000026823F07F439362E3E70468E5690D4A4C
:102580002A401343E36104684A000A44D300034429
:102590001A6A22615B6A093B012BD2D801EB410127
:1025A000CB000344DB6A026823F07F431362C8E771
:1025B00002207047F0FFCC0042EA811242EA032376
:1025C000009A43EA0243C3667047037C012B75D02F
:1025D0000123037402680023C2F8C4300268C2F801
:1025E000C830816111F0010F6AD010B40268D2F8CE
:1025F000C4404FF6FF732343C2F8C43011F0020FFA
:1026000006D00268D2F8C43043F4F813C2F8C430DC
:1026100011F0040F06D00268D2F8C83043F001036D
:10262000C2F8C83011F0080F06D00268D2F8C830DE
:1026300043F00203C2F8C83011F0100F06D0026850
:10264000D2F8C83043F00C03C2F8C83011F0200FA4
:1026500006D00268D2F8C83043F01003C2F8C83080
:1026600011F0400F06D00268D2F8C83043F02003C2
:10267000C2F8C83011F0800F06D00268D2F8C83016
:1026800043F04003C2F8C83011F4807F06D00268DE
:10269000D2F8C83043F08003C2F8C83011F4007F8C
:1026A00006D00268D2F8C83043F4F853C2F8C830F4
:1026B0000023037418465DF8044B704702207047EE
:1026C00011F0020F06D00268D2F8C43043F4F813B8
:1026D000C2F8C43011F0040F06D00268D2F8C83036
:1026E00043F00103C2F8C83011F0080F06D00268A9
:1026F000D2F8C83043F00203C2F8C83011F0100F0E
:1027000006D00268D2F8C83043F00C03C2F8C830D3
:1027100011F0200F06D00268D2F8C83043F0100341
:10272000C2F8C83011F0400F06D00268D2F8C830A5
:1027300043F02003C2F8C83011F0800F06D00268C1
:10274000D2F8C83043F04003C2F8C83011F4807F9B
:1027500006D00268D2F8C83043F08003C2F8C8300F
:1027600011F4007F06D00268D2F8C83043F4F85361
:10277000C2F8C8300023037418467047002800F0E0
:10278000A48070B504460E46437CCBB1032363742A
:102790002268D2F8303443F08073C2F83034FEF748
:1027A00029FF05462368D3F80C2412F4805F0AD170
:1027B000FEF720FF401BB0F57A7FF3D9032070BDF0
:1027C00006F024FAE2E7D3F83014414A0A40C3F88D
:1027D00030242168D1F8302430687368DB0243EA82
:1027E0008003B06843EA00431343C1F830342268E1
:1027F000D2F8303443F00103C2F83034FEF7FAFE69
:1028000005462368D3F80C2412F4807F07D1FEF725
:10281000F1FE401BB0F57A7FF3D90320CFE7D3F860
:10282000A02042F00602C3F8A0202268D2F894301B
:1028300023F00303C2F894302268D2F89430616820
:102840000B4343F00103C2F894302268D2F8A4305D
:1028500023F00303C2F8A4302268D2F8A430E16860
:102860000B43C2F8A4302268936823F0FF039360FF
:1028700022689368A1680B439360726802B90122D1
:10288000144B03FB02F3B2689340316846F2A8127E
:1028900002FB01F2B3FBF2F32168D1F8182422F015
:1028A0003F02C1F818242168D1F818241343C1F855
:1028B000183423680020C3F8C4002368C3F8C80094
:1028C000A06160610123637479E70120704700BF54
:1028D0000386FCFF00093D0058B310B504460323EE
:1028E00043740268D2F8043423F00803C2F80434B5
:1028F0000268536823F0010353600268D2F8A030E5
:1029000023F00603C2F8A0300268D2F8303423F076
:102910000103C2F830340268D2F8303423F08073F7
:10292000C2F8303406F0A4F90020606160742074AD
:1029300010BD012070470000037C012B00F02381B3
:1029400030B4012303740268536B23F00103536313
:102950000268D2F8003423F00103C2F800340268A0
:10296000936B23F0030393630268936BCC68234358
:1029700093630268D46B854B2340D3630268D36BA7
:102980000C692343D36303681A6C814C22401A6498
:1029900003681A6C4D692A431A640268536C234019
:1029A00053640268536C8C69234353640268D36890
:1029B00023F00303D3600268D3680C682343D36019
:1029C0000268536923F007035361046862694B6A24
:1029D0000D6A2B43CD692B4313436361026813696E
:1029E00023F00F031361026813694C6823431361DA
:1029F0000268D2F8003423F00E03C2F800340268F3
:102A0000D2F800344C6843EA4403C2F800344B68FF
:102A1000032B00F0AD8003689A6C5E4C22409A64F0
:102A200003689A6C8D6A2A439A640268D36C2340C7
:102A3000D3640268D36CCC6A2343D3640268146DF8
:102A4000554B234013650268136D0C6B23431365CC
:102A50000468636D514A134063650468636D4D6B90
:102A60002B4363650468A36D1340A3650468A36DDD
:102A70008D6B2B43A3650468E36D1340E365026827
:102A8000D36DCC6B2343D3650268146E3F4B234058
:102A900013660268136E0C6C234313660268936B13
:102AA00023F4004393630268936B4C6C234393635A
:102AB0000268936923F47F039361026893698C6CC5
:102AC00043EA044393610268936923F0FF0393612F
:102AD00002689369CC6C234393610268936B23F47F
:102AE000005393630268936B0C6D234393630268F6
:102AF000936B23F4805393630268936B4C6D234371
:102B000093630268936B23F4006393630268936B8F
:102B10008C6D234393630268936B23F48063936308
:102B20000268936BCC6D234393630268936B23F429
:102B3000007393630268936B0C6E23439363026884
:102B4000936B23F4807393630268936B4C6E2343FF
:102B500093630268936B23F4804393630268936BDF
:102B6000896E0B43936300230374184630BC70478F
:102B70000268136923F480731361026813698C6817
:102B80002343136147E70220704700BF00C0FFFFE7
:102B900000E0FFFF00F0FFFF0080FFFF00FCFFFFF1
:102BA000037C012B31D030B4012303740268946E8E
:102BB000174B234093660468A26E0B684D682B4345
:102BC0008D682B43CD682B430D692B434D692B43F7
:102BD0008D692B43CD692B430D6A2B434D6A2B43E3
:102BE0008D6A2B43CD6A2B431343A3660268936E11
:102BF00023F0020393660268936E096B0B4393669E
:102C000000230374184630BC70470220704700BF91
:102C1000FF80F0FE037C012B0ED0012303740268B9
:102C2000D36A23F01F03D3620268D36A1943D162C7
:102C3000002303741846704702207047037C012B61
:102C40003ED030B4012303740B684A68934238BF06
:102C500013460468D4F8982002F0FC22C4F89820A7
:102C60000468D4F8982043EA03431343C4F8983027
:102C70000268D2F89C3003F40043C2F89C30046828
:102C8000D4F89C200B69CD6843EA05438D6843EA7C
:102C900005631343C4F89C300268D2F8A43023F4CF
:102CA0007F43C2F8A4300268D2F8A430496943EAED
:102CB0000123C2F8A43000230374184630BC7047C7
:102CC00002207047037C012B71D030B401230374C0
:102CD0000268936823F47F439360026893680C68EA
:102CE00043EA042393600268936F9BB29367026880
:102CF000936F4C6843EA044393670468A26F2D4BBB
:102D00001A40A2670468A26F8D682A43A26704680C
:102D1000E26F1A40E2670468E26FCD682A43E26717
:102D20000468D4F880201A40C4F880200468D4F8DD
:102D300080200D692A43C4F880200468D4F88420D8
:102D40001A40C4F884200468D4F884204D692A43CA
:102D5000C4F884200468D4F8842022F08072C4F877
:102D600084200468D4F884208D692A43C4F8842020
:102D70000468D4F888201A40C4F888200468D4F87D
:102D80008820CD692A43C4F888200468D4F88C20B0
:102D90001340C4F88C300268D2F88C30096A0B43B7
:102DA000C2F88C3000230374184630BC70470220F0
:102DB000704700BF0000FFFF037C012B11D00123EF
:102DC00003740268536843F0010353600268D2F849
:102DD000043443F00803C2F8043400230374184693
:102DE0007047022070472DE9F04383B0047C012C2A
:102DF00023D0994690460F46044601230374FEF7FC
:102E0000F9FB06462068456F15F0010F09D1FEF762
:102E1000F1FB801BB0F57A7FF4D9002323740320E3
:102E200008E00A9B00934B4642463946FFF7C4FB35
:102E30000020207403B0BDE8F0830220FAE72DE9FA
:102E4000F04782B00A9E0B9F047C012C4CD0984620
:102E500092468946054601230374FEF7CBFB0446E0
:102E60002B68586F10F0010F09D1FEF7C3FB001B50
:102E7000B0F57A7FF4D900232B74032031E00024CD
:102E80000FE03B5D621CBA5C43EA0223A21CBA5C01
:102E900043EA0243E21CB95C2A6843EA0163136710
:102EA0000434444510D2002CEBD13B5D46EA0323A9
:102EB000621CBA5C43EA0243A21CB95C2A6843EA7A
:102EC000016313670334ECE708F10103C3F307223E
:102ED0000092DBB2524649462868FFF76DFB00209E
:102EE000287402B0BDE8F0870220FAE7037C012BCA
:102EF00013D0012303740268D2F81C3423F0C0639A
:102F0000C2F81C340268D2F81C3443EA4161C2F8AA
:102F10001C140023037418467047022070470000F9
:102F200000230F2B00F2E280F0B482B039E00922D6
:102F300000E00022B2403A4302346D4E46F82420AD
:102F40006C4A1468EA4302EA04064F6817F4803FAB
:102F500001D045EA0406674C2660646802EA04066C
:102F60004F6817F4003F01D045EA0406614C6660E3
:102F7000A46802EA04064F6817F4801F01D045EAEE
:102F800004065C4CA660E46822404E6816F4001FFC
:102F900001D045EA0402574CE26001330F2B00F2E6
:102FA000A28001229A400C6804EA0205AA42F4D1E8
:102FB0004C68122C18BF022C10D1DE08083650F8CD
:102FC00026C003F00704A7000F24BC402CEA040C21
:102FD0000C69BC4044EA0C0440F8264004685F00D9
:102FE0000326BE40F64306EA040C4C6804F00304D2
:102FF000BC4044EA0C0404604C6804F1FF3C112C12
:1030000018BFBCF1010F01D9122C11D1846806EA56
:10301000040CCC68BC4044EA0C048460446824EA94
:10302000020C4C68C4F300129A4042EA0C0242605F
:10303000C26816408A68BA403243C2604A6812F0D9
:10304000805FAAD02C4A546C44F480445464526C7F
:1030500002F480420192019A9C08A61C244A52F86C
:10306000267003F0030296000F22B24027EA0207FF
:10307000224A90423FF45DAF02F58062904222D036
:1030800002F58062904220D002F5806290421ED00C
:1030900002F5806290421CD002F5806290421AD004
:1030A00002F58062904218D002F58062904216D0FC
:1030B00002F58062904214D002F5806290423FF4A3
:1030C00036AF0A2236E7012234E7022232E7032232
:1030D00030E704222EE705222CE706222AE7072202
:1030E00028E7082226E702B0F0BC7047704700BF0F
:1030F00000380140003C014000380240000002401E
:1031000000230F2B00F29280F0B50AE0092500E0C1
:10311000002505FA02F2A2426FD001330F2B00F214
:10312000848001229A4002EA0106B242F5D1056884
:103130005F000324BC40E443254005604FEAD30C04
:103140000CF1080C50F82CE003F00705AD000F2738
:1031500007FA05F52EEA050540F82C50856825404C
:103160008560456825EA02024260C2681440C46076
:103170004FEA930C0CF102042D4A52F8244003F05C
:103180000302920097403C402A4DA842C0D005F56A
:103190008065A84221D005F58065A8421FD005F5BD
:1031A0008065A8421DD005F58065A8421BD005F5B5
:1031B0008065A84219D005F58065A84217D005F5AD
:1031C0008065A84215D005F58065A84213D005F5A5
:1031D0008065A8429AD00A259BE7012599E7022538
:1031E00097E7032595E7042593E7052591E706254D
:1031F0008FE707258DE708258BE70D4D0CF10202BF
:1032000055F8224024EA070745F822700A4C256841
:10321000F24315402560656815406560A568154056
:10322000A560E5682A40E26077E7F0BD704700BF1F
:103230000038014000000240003C014012B909047E
:10324000816170478161704708B5054B5B69034236
:1032500000D108BD024B586104F0AEFDF9E700BF94
:10326000003C014003689A6912F0020F01D000226D
:103270009A6203689A6912F0010F03D19A6942F0C9
:1032800001029A61704770B4039E05686868740D06
:1032900004F4806444F07F7444F4583444F47F743C
:1032A00044F0030420EA0400C1F3090141EA0241A9
:1032B000194331430143696070BC704770B50446DF
:1032C0000D46164603689B6913F0100F17D023684C
:1032D0009A6912F0200F14D1B5F1FF3FF7D025B154
:1032E000FEF788F9801BA842F1D9202384F84130E9
:1032F000002384F8423084F8403003201EE0002090
:103300001CE01022DA6123682025DD612046FFF7EA
:10331000A9FF2268536823F0FF7323F48B3323F44F
:10332000FF7323F0010353600423636484F8415066
:10333000002384F8423084F84030012070BD70B51D
:1033400004460D46164623689B6913F0020F1CD1F4
:10335000324629462046FFF7B1FFC0B9B5F1FF3F1D
:10336000F1D025B1FEF746F9801BA842EBD9636C7A
:1033700043F020036364202384F84130002384F861
:10338000423084F84030032000E0002070BD01206E
:10339000FCE7F8B505460F4616461C462B689B69A8
:1033A00037EA03030CBF01230023B34213D1B4F166
:1033B000FF3FF3D02CB1FEF71DF9069BC01AA042C7
:1033C000ECD9202385F84130002385F8423085F878
:1033D0004030032000E00020F8BD000070B582B04E
:1033E000044616461D461E4B00934FF08073EAB20A
:1033F000FFF749FF079A06992046FFF7A0FF30B173
:10340000636C042B27D10123184602B070BD012D37
:103410000FD12368F6B29E62079B0093069B0022A1
:1034200080212046FFF7B5FF03460028ECD0032398
:10343000EAE72368320A9A62079A06992046FFF75C
:103440007EFF20B1636C042B07D10123DCE72368E6
:10345000F6B29E62E0E70323D6E70323D4E700BF7A
:103460000020008070B582B0044616461D461D4BF4
:1034700000930023EAB2FFF706FF079A0699204659
:10348000FFF75DFF30B1636C042B27D10123184691
:1034900002B070BD012D0FD12368F6B29E62079B6A
:1034A0000093069B002240212046FFF772FF03464F
:1034B0000028ECD00323EAE72368320A9A62079ACD
:1034C00006992046FFF73BFF20B1636C042B07D120
:1034D0000123DCE72368F6B29E62E0E70323D6E728
:1034E0000323D4E70020008070B505460C4616463D
:1034F0002B689B6913F0200F19D1324621462846CC
:10350000FFF7DCFEA8B924B1FEF774F8801BA042D7
:10351000EED96B6C43F020036B64202385F84130B7
:10352000002385F8423085F84030032070BD00202C
:10353000FCE70120FAE70000002857D010B5044648
:1035400090F84130002B41D0242384F84130226888
:10355000136823F0010313606368226823F070632B
:1035600013612268936823F400439360E368012B9E
:1035700031D0A368226843F404439360E368022BCC
:103580002FD0226851681A4B0B4353602268D368CE
:1035900023F40043D360236962691343A16922685D
:1035A00043EA0123D360E369216A22680B43136075
:1035B0002268136843F00103136000206064202335
:1035C00084F84130206384F8420010BD80F8403018
:1035D00005F0A0FBB8E7A368226843F400439360BA
:1035E000CCE723684FF400625A60CAE701207047B5
:1035F000008000022DE9F04782B0BDF82C7090F8F1
:103600004150EDB2202D40F0CE80B7FA87F56D091C
:103610000A9C002C08BF0125002D40F0C98090F8BD
:103620004040012C00F0C680984691460D46044665
:103630004FF0010A80F840A0FDF7DCFF064600903D
:10364000192352464FF400412046FFF7A2FE0028FE
:1036500040F0B280212384F84130402384F8423086
:10366000002363640A9A62626785636301960C9B18
:10367000009343464A4629462046FFF7AFFE60B115
:10368000636C042B04D1002384F8403053468BE054
:10369000002384F84030032386E0638D9BB2FF2B28
:1036A0000AD9FF222285002300934FF08073294618
:1036B0002046FFF7E8FD21E0628D92B222850023CB
:1036C00000934FF00073D2B229462046FFF7DBFD8E
:1036D00014E0636C042B71D1012365E0628D92B21A
:1036E0002285002300934FF00073D2B22946204672
:1036F000FFF7C9FD638D9BB2002B32D032460C9987
:103700002046FFF71CFE0028E3D1636A5A1C626260
:1037100022681B789362638D013B9BB26385238D86
:10372000013B9BB22385002BE4D1638D9BB2002B20
:10373000E0D000960C9B002280212046FFF729FE56
:1037400000283DD1638D9BB2FF2BC7D9FF22228574
:10375000002300934FF0807329462046FFF793FD26
:10376000C8E732460C992046FFF7BEFE034620B15B
:10377000636C042B26D1012316E022682021D1613D
:103780002068426822F0FF7222F48B3222F4FF722A
:1037900022F00102426084F84110002284F84220A5
:1037A00084F8402000E00223184602B0BDE8F0870C
:1037B0000123F9E70223F7E70323F5E70323F3E700
:1037C0000323F1E70323EFE72DE9F04782B0BDF8CB
:1037D0002C7090F84150EDB2202D40F0CB80B7FA1C
:1037E00087F56D090A9C002C08BF0125002D40F0CB
:1037F000C68090F84040012C00F0C3809846914666
:103800000D4604464FF0010A80F840A0FDF7F2FE95
:1038100006460090192352464FF400412046FFF718
:10382000B8FD002840F0AF80222384F841304023C7
:1038300084F84230002363640A9A62626785636396
:1038400001960C9B009343464A4629462046FFF7C3
:1038500009FE60B1636C042B04D1002384F840306E
:10386000534688E0002384F84030032383E0638DCF
:103870009BB2FF2B0AD9FF222285474B00934FF0C2
:10388000807329462046FFF7FEFC1CE0628D92B251
:103890002285414B00934FF00073D2B22946204657
:1038A000FFF7F1FC0FE0628D92B2228500230093B6
:1038B0004FF00073D2B229462046FFF7E4FC638D37
:1038C0009BB2002B34D000960C9B00220421204692
:1038D000FFF75FFD002858D123685A6A636A591CB4
:1038E00061621A70238D013B9BB22385628D013A80
:1038F00092B26285002BE2D1638D9BB2002BDED0A9
:1039000000960C9B002280212046FFF742FD0028F4
:103910003DD1638D9BB2FF2BC5D9FF2222850023A9
:1039200000934FF0807329462046FFF7ACFCC6E7B2
:1039300032460C992046FFF7D7FD034620B1636C51
:10394000042B26D1012316E022682021D1612068B2
:10395000426822F0FF7222F48B3222F4FF7222F0CE
:103960000102426084F84110002284F8422084F869
:10397000402000E00223184602B0BDE8F087012392
:10398000F9E70223F7E70323F5E70323F3E703232C
:10399000F1E70323EFE700BF0024008090F84130F7
:1039A000DBB2202B24D190F84030012B22D0012310
:1039B00080F84030242380F841300268136823F0F7
:1039C000010313600268136823F4805313600268D4
:1039D0001368194311600268136843F00103136010
:1039E000202380F84130002380F84030184670478B
:1039F000022070470220704790F84130DBB2202B44
:103A000022D190F84030012B20D0012380F84030A3
:103A1000242380F841300268136823F00103136007
:103A20000268136823F4706343EA0121116002689D
:103A3000136843F001031360202380F84130002312
:103A400080F84030184670470220704702207047C7
:103A5000F0B44D680468E368C3F30B431D44D2011E
:103A60001444D4F8883003F47043C4F888300B68E9
:103A70000468E668C6F30B4633440133144443EA52
:103A80000543C4F88830CD680468E368C3F30A03CB
:103A90001D441444D4F88C3003F47043C4F88C30C3
:103AA0008B680468E668C6F30A063344013314449D
:103AB00043EA0543C4F88C3003681344D3F89440B8
:103AC00024F00704C3F89440036813440C69C3F856
:103AD000944091F831C091F832708E6905681544B0
:103AE000D5F89C300024C5F89C4091F8303043EA6A
:103AF0000C2343EA07430568154443EA0663C5F807
:103B00009C3003681344D3F8985025F0FF05C3F8A0
:103B10009850036813444D69C3F8985003681344E0
:103B2000D3F8A0602D4D3540C3F8A050CD690E6A82
:103B3000036813443543C3F8A05003681344D3F813
:103B4000AC50C3F8AC40036813444C6AC3F8AC40B3
:103B50000B696BB1012B3AD0022B18BF042B38D064
:103B6000032B38D0072B01D0012302E0022300E011
:103B7000042304681444D4F8B05005F0E025C4F8D8
:103B8000B0508C6A03FB04F54C680E68A41B03FB61
:103B900004F303330468144443EA0543C4F8B03023
:103BA00003681344D3F8B4500D4C2C40C3F8B44010
:103BB00003681344C96AC3F8B41003681A44D2F8FE
:103BC000843043F00103C2F88430F0BC7047032313
:103BD000CFE70223CDE70223CBE700BFF8F8FFFFD2
:103BE00000F8FFFF002877D038B5044690F8A130E0
:103BF000002B6CD0022384F8A1302268936923F053
:103C00007043936121688A696368A0680343E06830
:103C100003432069034313438B6121688A682F4B58
:103C20001A408A60656920688268A16941EA054195
:103C30000A4382602168CA681A40CA60E569206840
:103C4000C268216A41EA05410A43C26021680A69E3
:103C50001A400A61656A20680269A16A41EA054161
:103C60000A43026121684A6913404B61E06A216896
:103C70004B69226B42EA004213434B6194F83500D2
:103C800094F836301B042168CA6A02F07F42CA6287
:103C90002168CA6A43EA002394F8340003431343BB
:103CA000CB622268536B43F0040353632268536B67
:103CB00043F0020353632268936943F00103936165
:103CC0000020C4F8A400012384F8A13038BD80F896
:103CD000A03005F093F88DE70120704700F800F060
:103CE00090F8A030012B27D02DE9F04194460F46E3
:103CF00006464FF0010880F8A080022380F8A1302A
:103D0000342404FB020438340D460FCD0FC40FCD0C
:103D10000FC40FCD0FC42B6823606246394630466E
:103D2000FFF796FE3368C3F8248086F8A180002050
:103D300086F8A000BDE8F081022070474B6A0BB105
:103D40004FF00053C3600B6A03BB4FF080438360A6
:103D5000CB69EBB1002343604B6B013B83614B6B41
:103D60008A6B1344013B03624B6B8A6B13440A6CEE
:103D70001344013B83624B6B8A6B13440A6C1344FC
:103D8000CA6B1344013B0363002070470023DEE746
:103D90004FF00043DFE700287DD0F0B58BB004463C
:103DA00090F8BD33E3B1032384F8BD33206802F0FB
:103DB00095FE254655F8107B6E460FCD0FC60FCDEC
:103DC0000FC695E8030086E80300231D0ECB384696
:103DD00002F046FE0021206802F086FE00231AE071
:103DE00080F8BC3305F0AEFADDE7D900C81A8200CE
:103DF0002244012082F83D0082F83C30A2F8423093
:103E0000002082F83F0050649064CA1A9100214457
:103E100008650133DBB20E2BE7D9002315E0D8008B
:103E2000C11A8A002244002182F8FD1182F8FC3177
:103E300082F8FF11C2F80412C2F80812C21A9000E8
:103E40002044C0F810120133DBB20E2BE7D925460F
:103E500055F8107B6E460FCD0FC60FCD0FC695E8F7
:103E6000030086E80300231D0ECB384602F082FED5
:103E7000002384F83830012384F8BD33636A012BB2
:103E800005D0206802F048FF00200BB0F0BD2046AE
:103E900000F004F8F5E701207047000002460368CF
:103EA0000121C0F8F813002082F8F0039A6942F06B
:103EB00000629A61596D024A0A435A65704700BF11
:103EC00003000010024A136843F4807313607047C4
:103ED0000070004010B582B01B4B1A6C42F080524B
:103EE0001A641B6C03F080530193019B174A1368FB
:103EF00043F480331360FDF77DFB0446134B5B688E
:103F000013F4803F08D1FDF775FB001BB0F57A7FF5
:103F1000F4D9032002B010BD0C4A136843F40033F7
:103F20001360FDF767FB0446084B5B6813F4003F22
:103F300007D1FDF75FFB001BB0F57A7FF4D90320B2
:103F4000E8E70020E6E700BF0038024000700040CC
:103F50002DE9F04105460F4616469846069C2B680B
:103F60009B683B4214BF01230023B34212D0B4F13B
:103F7000FF3FF4D02CB1FDF73DFBA0EB0800A042C1
:103F8000EDD9042385F841306B6C43F001036B6479
:103F9000012000E00020BDE8F0818164704700004E
:103FA00030B583B00446FDF725FB002C54D0054600
:103FB00094F84030DBB2012B50D0012384F840301C
:103FC00094F84130002B3CD021680B6823F4F8535F
:103FD000A268013A43EA02230B60A36C00932B46CC
:103FE000002220212046FFF7B3FF024618BB2068BD
:103FF00003681B4919406568E36843EA0563E5699E
:104000002B43256A2B430B43036020684168154B03
:104010000B402569616941EA0541A56929430B43C4
:10402000436021680B6843F001030B600023636465
:10403000012384F84130002384F84030104603B057
:1040400030BD84F84030204604F0EEFE41F2883165
:104050002046FFF7A2FFB7E70122EFE70222EDE7D4
:104060002FFFFF00FEF8E0FF002800F0DC8170B5B4
:1040700082B00446036813F0010F29D0A24B9B685D
:1040800003F00C03042B1AD09F4B9B6803F00C0326
:10409000082B0FD06368B3F5803F40D0002B54D17C
:1040A000994B1A6822F480321A601A6822F480222E
:1040B0001A6039E0944B5B6813F4800FEAD0924B9E
:1040C0001B6813F4003F03D06368002B00F0AD8140
:1040D000236813F0020F75D08B4B9B6813F00C0F05
:1040E0005ED0894B9B6803F00C03082B53D0E36828
:1040F000002B00F08A80844A136843F001031360A8
:10410000FDF778FA0546804B1B6813F0020F73D158
:10411000FDF770FA401B0228F5D9032088E17A4A9E
:10412000136843F48033136063682BB3FDF762FABE
:104130000546754B1B6813F4003FC9D1FDF75AFAC9
:10414000401B6428F5D9032072E1B3F5A02F09D0F4
:104150006D4B1A6822F480321A601A6822F48022A9
:104160001A60E1E7684B1A6842F480221A601A6804
:1041700042F480321A60D7E7FDF73CFA0546624BFD
:104180001B6813F4003FA3D0FDF734FA401B6428EA
:10419000F5D903204CE15C4B5B6813F4800FA6D18A
:1041A000594B1B6813F0020F04D0E368012B01D0B8
:1041B00001203DE1544A136823F0F803216943EAE2
:1041C000C1031360236813F0080F46D0636983B3FB
:1041D0004D4A536F43F001035367FDF70BFA054651
:1041E000494B5B6F13F0020F37D1FDF703FA401B09
:1041F0000228F5D903201BE1434A136823F0F80392
:10420000216943EAC1031360DCE73F4A136823F0E6
:1042100001031360FDF7EEF905463B4B1B6813F0F5
:10422000020FCFD0FDF7E6F9401B0228F5D9032095
:10423000FEE0354A536F23F001035367FDF7DAF9C7
:104240000546314B5B6F13F0020F06D0FDF7D2F934
:10425000401B0228F5D90320EAE0236813F0040F7D
:104260007ED0294B1B6C13F0805F1ED1264B1A6C3D
:1042700042F080521A641B6C03F080530193019B3F
:104280000125224B1B6813F4807F10D0A368012BFB
:1042900021D0002B3CD11C4B1A6F22F001021A676F
:1042A0001A6F22F004021A671AE00025E9E7174A9C
:1042B000136843F480731360FDF79CF90646134BB3
:1042C0001B6813F4807FE1D1FDF794F9801B64280B
:1042D000F5D90320ACE00C4A136F43F001031367D8
:1042E000A3685BB3FDF786F90646074B1B6F13F017
:1042F000020F34D1FDF77EF9801B41F288339842DA
:10430000F3D9032094E000BF003802400070004061
:10431000052B09D0484B1A6F22F001021A671A6F59
:1043200022F004021A67DBE7434B1A6F42F00402E3
:104330001A671A6F42F001021A67D1E7FDF75AF9BE
:1043400006463D4B1B6F13F0020F08D0FDF752F9E4
:10435000801B41F288339842F3D9032068E0F5B915
:10436000A369002B63D0344A926802F00C02082A39
:1043700060D0022B19D0304A136823F08073136089
:10438000FDF738F904462C4B1B6813F0007F48D02A
:10439000FDF730F9001B0228F5D9032048E0264A32
:1043A000136C23F080531364DAE7234A136823F075
:1043B00080731360FDF71EF905461F4B1B6813F051
:1043C000007F06D0FDF716F9401B0228F5D903201F
:1043D0002EE0E369226A1343626A43EA8213A26A07
:1043E0005208013A43EA0243E26A43EA0263226B5B
:1043F00043EA0273104A5360136843F080731360FA
:10440000FDF7F8F804460C4B1B6813F0007F06D14B
:10441000FDF7F0F8001B0228F5D9032008E0002082
:1044200006E0002004E001207047012000E00020A9
:1044300002B070BD0120FBE70038024070B588B0C3
:104440000C46164600B3204D2B6B43F004032B6340
:104450002B6B03F004030293029B4FF4007303934E
:10446000022304930323069300230593079303A9D0
:104470001648FEF755FDAB6823F0784344EAC604BE
:104480001C43AC6008B070BD0F4D2B6B43F00103B3
:104490002B632B6B03F001030193019B4FF480739B
:1044A00003930223049303230693002305930793A6
:1044B00003A90748FEF734FDAB6823F0EC633443EF
:1044C0001C43AC60DEE700BF003802400008024039
:1044D00000000240264B9B6803F00C03042B44D0E1
:1044E000082B01D0234870472DE9F04B204B5A6828
:1044F00002F03F025B6813F4800F13D01C4B596825
:10450000C1F3881100231C48A1FB0001FBF7F8FE52
:10451000174B5B68C3F3014301335B00B0FBF3F05F
:10452000BDE8F08B124B5B68C3F388131E4600276F
:104530005C010025E41A65EB0705A90141EA9461D5
:10454000A001001B61EB0501CB0043EA5073C400DE
:10455000A01943EB07018B0243EA905384022046E3
:1045600019460023FBF7CCFED2E70348704700BF93
:10457000003802400024F40040787D01002800F05B
:10458000A28070B50446524B1B6803F00F038B42A8
:104590000CD24F4A136823F00F030B4313601368C8
:1045A00003F00F038B4201D0012070BD236813F08C
:1045B000020F17D013F0040F04D0464A936843F457
:1045C000E0539360236813F0080F04D0414A9368C6
:1045D00043F4604393603F4A936823F0F003A0687C
:1045E000034393600D46236813F0010F31D06368D5
:1045F000012B20D0022B25D0364A126812F0020F70
:1046000063D034498A6822F0030213438B60FCF7BD
:10461000F1FF06462F4B9B6803F00C036268B3EB77
:10462000820F16D0FCF7E6FF801B41F288339842D8
:10463000F0D90320B9E7274A126812F4003FE0D10D
:104640000120B2E7234A126812F0007FD9D101207D
:10465000ABE71F4B1B6803F00F03AB420CD91C4A9E
:10466000136823F00F032B431360136803F00F0349
:10467000AB4201D0012098E7236813F0040F06D065
:10468000144A936823F4E053E1680B439360236872
:1046900013F0080F07D00F4A936823F46043216991
:1046A00043EAC1039360FFF715FF0A4B9B68C3F30E
:1046B0000313094AD35CD840084B18600020FCF76C
:1046C0005DFF002071E70120704701206DE700BF0A
:1046D000003C02400038024050060108540000200F
:1046E000014B1868704700BF5400002008B5FFF761
:1046F000F7FF044B9B68C3F38223034AD35CD84083
:1047000008BD00BF003802406006010808B5FFF789
:10471000E7FF044B9B68C3F34233034AD35CD840A2
:1047200008BD00BF0038024060060108F0B583B044
:104730000446036813F0010F0CD0B54B9A6822F4BD
:1047400000029A609A68416B0A439A60436BC3B156
:10475000002600E00026236813F4002F15D0AC4A91
:10476000D2F88C3023F44013E16B0B43C2F88C3049
:10477000E36BB3F5801F06D0002B00F045810025C8
:1047800004E00126E7E70126F6E70025236813F495
:10479000801F0FD09E4AD2F88C3023F44003216C46
:1047A0000B43C2F88C30236CB3F5800F00F02E81E0
:1047B00003B90125236813F0807F00D0012613F090
:1047C000200F40F02781236813F0100F0CD0904B7E
:1047D000D3F88C2022F08072C3F88C20D3F88C2080
:1047E000A16B0A43C3F88C20236813F4804F08D0D0
:1047F000874AD2F8903023F44033616E0B43C2F8FD
:104800009030236813F4004F08D0814AD2F89030DA
:1048100023F44023A16E0B43C2F89030236813F4B5
:10482000803F08D07A4AD2F8903023F44013E16EEA
:104830000B43C2F89030236813F4003F08D0744A49
:10484000D2F8903023F44003216F0B43C2F890302C
:10485000236813F0400F08D06D4AD2F8903023F04F
:104860000303616C0B43C2F89030236813F0800F90
:1048700008D0674AD2F8903023F00C03A16C0B43A8
:10488000C2F89030236813F4807F08D0604AD2F8D1
:10489000903023F03003E16C0B43C2F89030236872
:1048A00013F4007F08D05A4AD2F8903023F0C003A6
:1048B000216D0B43C2F89030236813F4806F08D049
:1048C000534AD2F8903023F44073616D0B43C2F821
:1048D0009030236813F4006F08D04D4AD2F890301E
:1048E00023F44063A16D0B43C2F89030236813F4A6
:1048F000805F08D0464AD2F8903023F44053E16DEF
:104900000B43C2F89030236813F4005F08D0404A8C
:10491000D2F8903023F44043216E0B43C2F890301C
:10492000236813F4800F08D0394AD2F8903023F06E
:104930008063A16F0B43C2F89030236813F4001F0B
:104940000DD0334AD2F8903023F00063E16F0B436F
:10495000C2F89030E36FB3F1006F00F0C1802368BC
:1049600013F0080F00D0012513F4802F08D0284A37
:10497000D2F8903023F04073616F0B43C2F890304F
:10498000236813F4000F09D0214AD2F8903023F0A5
:104990008053D4F880100B43C2F89030236813F092
:1049A000806F09D01A4AD2F8903023F00053D4F81F
:1049B00084100B43C2F89030236813F0006F09D0C5
:1049C000134AD2F88C3023F00073D4F888100B43CC
:1049D000C2F88C30236813F0805F09D00C4AD2F8FB
:1049E0008C3023F08063D4F88C100B43C2F88C30E9
:1049F000002E77D12368B3F1007F73D0002D40F0F3
:104A00000481002003B0F0BD0125BFE60126CFE6FA
:104A100000380240B74B1A6C42F080521A641B6C8B
:104A200003F080530193019BB34A136843F48073EE
:104A30001360FCF7DFFD0746AF4B1B6813F4807F64
:104A400006D1FCF7D7FDC01B6428F5D90320D9E7B0
:104A5000A84B1B6F13F4407315D0226B02F4407205
:104A60009A4210D0A34B1A6F22F44072196F41F48E
:104A700080311967196F21F4803119671A671B6F2C
:104A800013F0010F12D1236B03F44072B2F5407F93
:104A90001DD0984A936823F4F813936095490B6FDF
:104AA000226BC2F30B0213430B678CE6FCF7A2FDEB
:104AB0000746904B1B6F13F0020FE4D1FCF79AFDF1
:104AC000C01B41F288339842F3D903209AE7894802
:104AD000826822F4F812894919400A438260DDE7AE
:104AE00001253CE7834A136823F080631360FCF7D9
:104AF00081FD06467F4B1B6813F0006F06D0FCF764
:104B000079FD801B6428F5D903207BE7236813F027
:104B1000010F13D0636B8BB9764AD2F88430D2F888
:104B20008410606803F4403343EA801301F070613D
:104B30000B43A16843EA0173C2F88430236813F47D
:104B4000002F03D0E26BB2F5801F06D013F4801F54
:104B50001ED0236CB3F5800F1AD1664AD2F8843088
:104B6000D2F88410606803F4403343EA8013E068AD
:104B700043EA006301F0E0410B43C2F88430D2F80D
:104B80008C3023F01F03616A01390B43C2F88C306B
:104B9000236813F0807F11D0564AD2F88400D2F8EF
:104BA0008410666823691B0443EA861300F0706072
:104BB000034301F0E0410B43C2F88430236813F053
:104BC000007F0DD0626823691B0443EA8213E26808
:104BD00043EA0263A26843EA0273464AC2F8843099
:104BE000444A136843F080631360FCF703FD0646F4
:104BF000404B1B6813F0006F7FF400AFFCF7FAFC2A
:104C0000801B6428F4D90320FCE63A4A136823F099
:104C100080531360FCF7EEFC0546364B1B6813F01F
:104C2000005F06D0FCF7E6FC401B6428F5D90320A2
:104C3000E8E6236813F4002F01D0E26B22B113F4ED
:104C4000801F1DD0236CDBB92A4AD2F88830D2F8F5
:104C50008810606903F4403343EA8013A06943EA93
:104C6000006301F0E0410B43C2F88830D2F88C3089
:104C700023F4F853A16A013943EA0123C2F88C30C6
:104C8000236813F4001F03D0E36FB3F1006F37D034
:104C9000236813F0080F19D0164AD2F88810D2F8FA
:104CA0008830606903F4403343EA801301F0706197
:104CB0000B43E16943EA0173C2F88830D2F88C30C3
:104CC00023F44033E16A0B43C2F88C30094A13687D
:104CD00043F080531360FCF78DFC0446054B1B68C2
:104CE00013F0005F1FD1FCF785FC001B6428F5D989
:104CF000032087E60038024000700040FFFCFF0FF1
:104D00000A4AD2F88800D2F888106569236A1B0421
:104D100043EA851300F07060034301F0E0410B4368
:104D2000C2F88830B4E700206CE600BF00380240CB
:104D300010B4B0F5002F07D00023B0F5801F72D05B
:104D400018465DF8044B70476F4BD3F88C3003F472
:104D50004013B3F5801F39D00CD9B3F5001F5ED0D6
:104D6000B3F5401F28D1684B5B6813F4800F58D10E
:104D7000664BE2E703BB644B5B6813F4800F1DD105
:104D8000614B5A6802F03F02604BB3FBF2F35E4A9C
:104D9000D2F88810C1F30361D2F88840C4F38814B4
:104DA00003FB04F3B3FBF1F3D2F88C20C2F304222B
:104DB0000132B3FBF2F3C0E70023BEE7524B5A685F
:104DC00002F03F02524BB3FBF2F3E0E74E4B5B685D
:104DD00013F4800F1BD14C4B5A6802F03F024B4B2F
:104DE000B3FBF2F3484AD2F88410C1F30361D2F85E
:104DF0008440C4F3881403FB04F3B3FBF1F3D2F84B
:104E00008C2002F01F020132B3FBF2F395E73E4B18
:104E10005A6802F03F023E4BB3FBF2F3E2E73D4B30
:104E20008BE73B4B89E7384AD2F88C2002F44002EA
:104E3000B2F5800F3AD00DD9B2F5000F5FD0B2F5C0
:104E4000400F7FF47DAF304B5B6813F4800F58D177
:104E50002E4B75E7002A7FF473AF2B4B5B6813F47E
:104E6000800F1BD1284B5A6802F03F02274BB3FB3F
:104E7000F2F3254AD2F88800C0F30360D2F8881014
:104E8000C1F3881103FB01F3B3FBF0F3D2F88C00FC
:104E9000C0F304200130B3FBF0F351E71A4B5A681A
:104EA00002F03F021A4BB3FBF2F3E2E7164B5B68EA
:104EB00013F4800F1BD1144B5A6802F03F02134BBE
:104EC000B3FBF2F3104AD2F88400C0F30360D2F8C7
:104ED0008410C1F3881103FB01F3B3FBF0F3D2F8A4
:104EE0008C0000F01F000130B3FBF0F328E7064B05
:104EF0005A6802F03F02064BB3FBF2F3E2E7054BC0
:104F00001EE7034B1CE700BF003802400024F400FA
:104F100040787D010080BB0038B504460268D36844
:104F200023F0A003D360FCF765FB05462368DB682C
:104F300013F0200F07D1FCF75DFB401BB0F57A7F23
:104F4000F4D9032000E0002038BD38B50368DA68E2
:104F500012F0400F01D0002038BD04464FF0FF3260
:104F6000DA60FCF747FB05462368DB6813F0400F67
:104F700007D1FCF73FFB401BB0F57A7FF4D9032043
:104F8000EAE70020E8E7000000284AD038B50446E8
:104F9000437F002B3AD0022363772368CA225A62E8
:104FA000236853225A622046FFF7CFFF02460028AB
:104FB00030D1216888681C4B03408B602068816871
:104FC000636825692B4365692B430B438360236822
:104FD000E168196121680B69A06843EA00430B612D
:104FE0002168CB6823F08003CB602168CB6C23F071
:104FF0000803CB642168CB6CA0690343CB642368AE
:10500000FF21596201236377104638BD037703F00F
:1050100093FFC0E72368FF225A62042363770122CB
:10502000F2E7012210467047BFFF8FFF002302E026
:1050300001330A38C0B20928FAD81B01DBB2184381
:105040007047000070B5037F012B64D00123037704
:10505000022343773AB94B7813F0100F03D003F0D3
:10506000EF030A334B700E460446002A30D1C8784D
:10507000FFF7DCFF05047078FFF7D8FF45EA00254D
:10508000B078FFF7D3FF0543307845EA4035236811
:10509000CA225A62236853225A622046FFF755FFFC
:1050A000064600BB22681D4B2B4053602268D36824
:1050B00023F08003D36023689B6813F0200F1CD07B
:1050C0002368FF225A62012363770023237712E0CB
:1050D000C8784D782D0245EA004588780543087860
:1050E00045EA4035D3E72368FF225A6204236377F9
:1050F000002323770126304670BD2046FFF70CFFC2
:105100000028DDD02368FF225A620423637700233E
:1051100023770126EFE70226EDE700BF3FFFFF0000
:10512000F8B5037F012B76D00D46044601230377A3
:1051300002234377002A44D103689B6813F0400F91
:1051400001D100230B732878FFF770FF06046878FD
:10515000FFF76CFF46EA0026A878FFF767FF0643D3
:10516000287B46EA00462368CA225A6223685322F3
:105170005A622046FFF7E9FE0746002833D122682D
:10518000264B334013602268936823F48023936096
:1051900021688B682A696869024313438B6022681F
:1051A000D36823F08003D36023689B6813F0200F3B
:1051B00023D02368FF225A620123637700232377D9
:1051C00019E003689B6813F0400F01D100230B73B3
:1051D00028786E78360246EA0046A8780643287B8F
:1051E00046EA0046BFE72368FF225A62042363773A
:1051F0000023237701273846F8BD2046FFF78CFEB1
:105200000028D6D02368FF225A6204236377002344
:1052100023770127EFE70227EDE700BF7F7F7F00BD
:10522000F8B5037F012B00F0A9800D460446012349
:10523000037702234377002A4DD103689B6813F05C
:10524000400F01D100230B732E6A2878FFF7EEFE82
:1052500007046878FFF7EAFE47EA0027A878FFF717
:10526000E5FE0743287B47EA004795F82400FFF74F
:10527000DDFE47EA00600643AB691E436F68EB69D9
:105280001F432368CA225A62236853225A62AB6AB8
:10529000B3F5807F39D02268936823F4007393605C
:1052A0002268936823F400539360FCF7A3F9054642
:1052B0002368DA6812F0020F50D1FCF79BF9401B0B
:1052C000B0F57A7FF4D92368FF225A620320607711
:1052D0000023237751E003689B6813F0400F01D14E
:1052E00000230B732A6A29786B781B0243EA014377
:1052F000A9780B43297B43EA014395F8241043EA3C
:1053000001631343AE691E43B8E72268936823F430
:10531000807393602268936823F480539360FCF752
:1053200069F905462368DA6812F0010F0DD1FCF720
:1053300061F9401BB0F57A7FF4D92368FF225A62E5
:10534000032060770023237717E0DE6123685F6422
:105350002268936843F48073936007E01E622368B9
:105360009F642268936843F4007393602368FF226C
:105370005A620123637700202077F8BD0220FCE702
:1053800030B40024046384634568022D14BF0024F4
:105390000124002D08BF0124B4B10024C4634FF4DC
:1053A000803484644FF6FF74046600244465C3654A
:1053B00013F0010F4DD151B102294DD84FF40034F3
:1053C000C4640024046507E00124C463E7E7002403
:1053D000C4644FF480240465032A3FD8DFE802F058
:1053E000020F1822802444635B085C0104641B01E3
:1053F00043644023836502291ED000202AE08024D4
:1054000044635B089D0105645B0143648465F2E7C6
:10541000C02444635B089C0104645B0143648023F3
:105420008365E8E7E02444635B089C0104645B0156
:10543000436480238365DEE7012A03D0022A04D077
:10544000002007E010234365F8E7082343650020A8
:1054500000E0012030BC70470120FBE70120F9E7A4
:1054600030B40024046384634568022D14BF002413
:105470000124002D08BF0124D4B10124C4630024F9
:1054800084644FF40035C5644FF480250565446598
:10549000C3654FF6FF74046603290CD004292CD190
:1054A00001214164032A2BD8DFE802F00810171FFE
:1054B0000024C463E3E70D214164F3E780224263E3
:1054C0001B01036440238365002017E080224263B0
:1054D0005B0103648265002010E0C02242635B012F
:1054E000036480238365002008E0E02242635B01BF
:1054F000036480238365002000E0012030BC7047F6
:105500000120FBE701290AD00123026B082A08D0F9
:105510004268023A012A0CD943F00400704709237B
:10552000F3E74268012A18BF032AF1D143F01003C0
:10553000EEE743F0600070470E4B1B680E4AA2FB7B
:1055400003231B0B9B0001680A6822F480320A6067
:105550005A1E3BB103681968134611F4803FF7D116
:1055600000207047D0F8803043F04003C0F880300E
:1055700003207047540000201BECCB95002800F05E
:10558000EB8070B5044690F87D30002B00F0B980B8
:10559000022384F87D302046FFF7CEFFE368012B1D
:1055A00000F0B680022B00F0B1800022A368022B2D
:1055B00000F0B080032B00F0B080012B00F0B2802F
:1055C00000252368654866498B4218BF834240F036
:1055D000AC80644B1A60E36923B323685F49604A77
:1055E000934218BF8B4200F0A380002023685E49DD
:1055F0005E4A934218BF8B4200F09F8000EB800010
:105600004100E3695B02B1FBF3F1594BA3FB0123BA
:10561000DB08236203EB830042008A1A082A01D9BF
:10562000013323626268022A14BF00230123002A87
:1056300008BF0123002B00F08780E36B012B00F0F3
:1056400081804FF4007621680B684A4A1A400A604C
:10565000226811686368206B0343606B0343A06B8F
:10566000034333432B43606A034320690343606968
:105670000343206A43EA00530B43136022685168D6
:105680003D4B0B40536021684A68A369A06A0343FD
:10569000E06A034313434B6022689168374B0B4029
:1056A000936020688268236C013B216D0B43A16CE1
:1056B0000B43E16C0B43616C013943EA0123134353
:1056C00083602268D36823F47D6323F00F031B04F7
:1056D0001B0CD3602068C268636DA16D0B43216E03
:1056E00043EA0143E16D013943EA01231343C360F7
:1056F0000020C4F88000012384F87D3084F87C0009
:1057000070BD80F87C3003F0BDFE41E720224DE7FC
:1057100010224BE74FF4006553E742F001024FF4CB
:1057200000654EE74FF480654BE7154B1A6052E772
:105730004FF40020FFF7FCFA58E74FF48010FFF712
:10574000F7FA5BE700267EE7E36B012B01D000262A
:1057500079E74FF4007676E701207047045801405E
:105760002458014000580140045C0140245C014081
:10577000CDCCCCCC10C005FFF01FFFFF0080F8FFA0
:10578000005C014010B50446042911D8DFE801F09F
:105790000303030808002046FFF7F2FD20B110BD07
:1057A0002046FFF75DFEF9E72046FFF7E7FEF6E744
:1057B0000120F4E770B590F87C30012B56D00446F8
:1057C000012380F87C3003681A6812F4003F36D059
:1057D0001A6822F400321A60C06E60B394F87D300B
:1057E000DBB2122B16D00026206F48B394F87D3020
:1057F000DBB2222B24D1FCF7E2FB08B3236F5B6DF5
:10580000802B1DD0D4F8803043F08003C4F8803062
:10581000012615E0FCF7D3FB06460028E4D0E36E32
:105820005B6D802B09D0D4F8803043F08003C4F83E
:1058300080300126D8E70026D6E70026D4E70026E8
:10584000236800251D6123684FF0FF329A612046CE
:10585000FFF772FE2268536843F008035360012388
:1058600084F87D3084F87C50304670BD0226FBE71A
:1058700038B51446B2FA82F25209002908BF012253
:10588000002A4CD190F87D30DBB2012B4AD190F840
:105890007C30012B48D023460446012280F87C202E
:1058A0006166A0F86830A0F86A300023C0F8803044
:1058B000122280F87D20C26E1C491164C26E1C4900
:1058C000D163C26E1B49D164C26E13650268B0F821
:1058D00068301C32416EC06EFCF737FB0546C8B914
:1058E00023681A6812F4803F03D11A6842F48032A8
:1058F0001A6000212046FFF705FE2268136918434D
:1059000010612268136843F400331360002384F8A5
:105910007C3005E0002384F87C30012500E001257F
:10592000284638BD0225FBE70225F9E73D5A000865
:10593000015A00088D5A000838B51446B2FA82F2AE
:105940005209002908BF0122002A4CD190F87D306D
:10595000DBB2012B4AD190F87C30012B48D0234692
:105960000446012280F87C206166A0F86830A0F827
:105970006A300023C0F88030222280F87D20026F38
:105980001C491164026F1C49D163026F1B49D16429
:10599000026F13650168B0F86830426E1C31006F09
:1059A000FCF7D3FA0546C8B923681A6812F4803F99
:1059B00003D11A6842F480321A6000212046FFF7B2
:1059C000A1FD22681369184310612268136843F42B
:1059D00000331360002384F87C3005E0002384F852
:1059E0007C30012500E00125284638BD0225FBE773
:1059F0000225F9E7835A0008475A00088D5A000823
:105A000010B5846B03681B6813F4807F12D10021EA
:105A1000A4F86A102268136823F400331360204648
:105A2000FFF770FD2268136923EA0000106101236B
:105A300084F87D30204601F07BF910BD08B5806BFD
:105A400001F07EF908BD10B5846B03681B6813F480
:105A5000807F12D12268136823F400331360002181
:105A6000A4F86A102046FFF74DFD2268136923EA67
:105A700000001061012384F87D30204601F07CF99C
:105A800010BD08B5806B01F063F908BD10B5846BDB
:105A9000D4F8803043F08003C4F88030E36E5B6D4F
:105AA000012B03D0236F5B6D012B0DD1226813688E
:105AB00023F4003313602046FFF73EFD012384F8F2
:105AC0007D300023A4F86A30204601F069F910BD4A
:105AD00090F87D30002B00F0C08010B504460368BC
